:100000000C9463000C94CD070C94A6070C948B0001
:100010000C948B000C948B000C948B000C94F407C4
:100020000C948B000C948B000C948B000C948B0024
:100030000C948B000C948B000C948B000C948B0014
:100040000C945C070C948B000C9476080C9450086C
:100050000C948B000C948B000C948B000C948B00F4
:100060000C94A8080C948B000000000023002600CC
:10007000290000000000240027002A0000000008DA
:10008000000201000003040700000000000000005F
:10009000010204081020408001020408102001021F
:1000A0000408102000000000250028002B00040494
:1000B0000404040404040202020202020303030310
:1000C00003030200D60911241FBECFEFD8E0DEBF24
:1000D000CDBF11E0A0E0B1E0EEE7F2E202C0059092
:1000E0000D92A235B107D9F722E0A2E5B1E001C037
:1000F0001D92AD3DB207E1F710E0C3E6D0E004C0C9
:100100002197FE010E942311C236D107C9F70E9430
:100110000F0A0C943D110C940000FC01538D448D8A
:10012000252F30E0842F90E0821B930B541710F0A2
:10013000CF96089501970895FC01918D828D9817AF
:1001400061F0828DDF01A80FB11D5D968C91928DBB
:100150009F5F9F73928F90E008958FEF9FEF0895B8
:10016000FC01918D828D981731F0828DE80FF11D81
:10017000858D90E008958FEF9FEF0895FC01918D9C
:10018000228D892F90E0805C9F4F821B91098F7395
:1001900099270895FC01848DDF01A80FB11DA35A92
:1001A000BF4F2C91848D90E001968F739927848F97
:1001B000A689B7892C93A089B1898C9183708064BA
:1001C0008C93938D848D981306C00288F389E02D5B
:1001D00080818F7D80830895EF92FF920F931F930C
:1001E000CF93DF93EC0181E0888F9B8D8C8D9813EA
:1001F00005C0E889F989808185FD26C0F62E0B8D22
:1002000010E00F5F1F4F0F731127E02E8C8DE81247
:100210000CC00FB607FCFACFE889F989808185FF09
:10022000F5CFCE010E94CA00F1CF8B8DFE01E80F01
:10023000F11DE35AFF4FF0829FB7F8940B8FEA89C4
:10024000FB89808180620AC09FB7F894EE89FF899C
:100250006083E889F98980818370806480839FBF8F
:1002600081E090E0DF91CF911F910F91FF90EF908F
:100270000895CF93DF93EC01888D8823C9F0EA8934
:10028000FB89808185FD05C0A889B9898C9186FD8F
:100290000FC00FB607FCF5CF808185FFF2CFA8898C
:1002A000B9898C9185FFEDCFCE010E94CA00E7CFBE
:1002B000DF91CF91089583E392E00E94BE0021E098
:1002C000892B09F420E0822F089580E090E0892BAB
:1002D00029F00E945B0181110C9400000895833085
:1002E00081F028F4813099F08230A1F008958730B0
:1002F000A9F08830B9F08430D1F4809180008F7DEE
:1003000003C0809180008F7780938000089584B52A
:100310008F7702C084B58F7D84BD08958091B00031
:100320008F7703C08091B0008F7D8093B0000895D7
:100330001F93CF93DF93282F30E0F901E458FF4F4C
:100340008491F901E057FF4FD491F901E255FF4F35
:10035000C491CC23C1F0162F81110E946F01EC2FA4
:10036000F0E0EE0FFF1FEC55FF4FA591B4919FB742
:10037000F894111104C08C91D095D82302C0EC914F
:10038000DE2BDC939FBFDF91CF911F910895CF9318
:10039000DF9390E0FC01E057FF4F2491FC01E25510
:1003A000FF4F8491882361F190E0880F991FFC0131
:1003B000EE58FF4FC591D491FC01EC55FF4FA5912C
:1003C000B491611109C09FB7F89488812095822368
:1003D0008883EC912E230BC0623061F49FB7F894B0
:1003E0008881322F309583238883EC912E2B2C9398
:1003F0009FBF06C08FB7F894E8812E2B28838FBF4C
:10040000DF91CF9108954F925F926F927F928F927A
:100410009F92AF92BF92CF92DF92EF92FF920F9393
:100420001F93CF93DF9300D000D01F92CDB7DEB7DC
:100430008C012A013B0180911C018B3021F08F3F00
:1004400009F03DC205C0E2ECF0E024912D8372C0BA
:100450008BE080931C01E2ECF0E084918D838F3F70
:1004600009F42DC2813009F441C038F1823009F01D
:1004700061C01092B0001092B1008091B000826013
:100480008093B0008091B10081608093B100E9EB6E
:10049000F0E0E491F0E0EE0FFF1FEC55FF4F859187
:1004A00094919093D9018093D801EBE9F0E0E49125
:1004B000E093D70122E02D83FDC114BC15BC84B5A7
:1004C000826084BD85B5816085BDE9EBF0E0E49193
:1004D000F0E0EE0FFF1FEC55FF4F85919491EBE993
:1004E000F0E0E491E093DB011D82E4C11092800012
:1004F00010928100809181008860809381008091BA
:100500008100816080938100E9EBF0E0E491F0E00C
:10051000EE0FFF1FEC55FF4F85919491EBE9F0E052
:10052000E491E093DA0161E08BE00E94C70191E081
:100530009D838AC08D8187FDC2C161E08BE00E94EE
:10054000C7018D818D7F09F07FC04801A12CB12C9E
:1005500060E072E18AE790E0A50194010E94F91041
:1005600029833A834B835C8369017A0191E0C91A3C
:10057000D108E108F1082FEFC216D104E104F1041B
:1005800009F008F44EC060E472E48FE090E0A50149
:1005900094010E94F91069017A0181E0C81AD1081A
:1005A000E108F1089D81923009F52FEFC216D104C0
:1005B000E104F10409F008F444C160E970ED83E05E
:1005C00090E0A50194010E94F91069017A0181E08F
:1005D000C81AD108E108F1089FEFC916D104E10457
:1005E000F10411F008F0BAC083E027C02FEFC21663
:1005F000D104E104F104B9F0B0F068E478EE81E0F0
:1006000090E0A50194010E94F91069017A0181E04E
:10061000C81AD108E108F1089D81992309F413C192
:10062000DCC081E001C082E09D81911106C095B5DA
:10063000987F892B85BD44C085E09091B100987F5B
:10064000892B8093B1003CC04801A12CB12C60E003
:1006500072E18AE790E0A50194010E94F910690116
:100660007A0181E0C81AD108E108F108C114D10467
:1006700091E0E906F10488F068E478EE81E090E02A
:10068000A50194010E94F91069017A0181E0C81A5C
:10069000D108E108F10883E001C081E09D8191303B
:1006A00079F490918100987F892B80938100411487
:1006B00051046104710449F42FEF3FEFA9012CC0EC
:1006C000411451046104710471F0D801AA0FBB1FD9
:1006D000A30192010E94181128EE33E040E050E09F
:1006E0000E94D71003C02FEF3FEFA9018D81813009
:1006F00099F0823019F18111E2C0C7BC2093E40166
:100700003093E5014093E6015093E70180916E003C
:10071000826080936E00D3C0D0928900C09288001E
:100720002093E0013093E1014093E2015093E30113
:1007300080916F00826080936F00C1C0C092B3004F
:100740002093DC013093DD014093DE015093DF0103
:1007500080917000826080937000B1C068E478EE90
:1007600081E090E0A50194010E94F91069017A01ED
:1007700091E0C91AD108E108F1082FEFC216D1049F
:10078000E104F10441F138F164E274EF80E090E0BB
:10079000A50194010E94F91069017A0181E0C81A4B
:1007A000D108E108F1089FEFC916D104E104F10472
:1007B00009F008F441CF62E17AE780E090E0A5011A
:1007C00094010E94F91069017A0181E0C81AD108E8
:1007D000E108F10819C084E030CF2FEFC216D10430
:1007E000E104F10409F008F463C062E17AE780E013
:1007F00090E0A50194010E94F91069017A0191E04D
:10080000C91AD108E108F1088FEFC816D104E10434
:10081000F104A9F0A0F089819A81AB81BC812AE022
:10082000B595A795979587952A95D1F76C017D0188
:1008300021E0C21AD108E108F10887E0FECE86E087
:10084000FCCE82E0FACE8FEFC816D104E104F104A9
:1008500069F160F162E17AE780E090E0A50194013E
:100860000E94F91069017A0191E0C91AD108E108E2
:10087000F1082FEFC216D104E104F104A9F0A0F0B1
:1008800089819A81AB81BC813AE0B595A79597950E
:1008900087953A95D1F76C017D0121E0C21AD10804
:1008A000E108F10885E0C3CE84E0C1CE83E0BFCE8D
:1008B00084E0BACE61E08BE00E94C70146CE0F9083
:1008C0000F900F900F900F90DF91CF911F910F918C
:1008D000FF90EF90DF90CF90BF90AF909F908F9060
:1008E0007F906F905F904F9008953FB7F8948091FC
:1008F000D3019091D401A091D501B091D60126B534
:10090000A89B05C02F3F19F00196A11DB11D3FBF47
:10091000BA2FA92F982F8827820F911DA11DB11DD5
:10092000BC01CD0142E0660F771F881F991F4A95D1
:10093000D1F708958F929F92AF92BF92CF92DF929C
:10094000EF92FF926B017C010E9475044B015C01E8
:10095000C114D104E104F104F1F00E947504DC013A
:10096000CB0188199909AA09BB09883E9340A105C2
:10097000B10570F321E0C21AD108E108F10888EE50
:10098000880E83E0981EA11CB11CC114D104E1049F
:10099000F10419F7DDCFFF90EF90DF90CF90BF907B
:1009A000AF909F908F9008958091CC019091CD0150
:1009B00001969093CD018093CC0108958091CA0156
:1009C0009091CB0101969093CB018093CA018091C5
:1009D0001401909115019093C5018093C401109268
:1009E000C0011092BF0182E090E090931B018093C0
:1009F0001A01089508950895089590911C0189138E
:100A000024C0E2ECF0E0E4919FEF90931C01E13010
:100A1000B9F098F0E230C9F4909170009D7F909306
:100A2000700091E09093B0009091B100987F946035
:100A30009093B1001092B30008C010926E0005C0F0
:100A400090916F009D7F90936F0060E00C949801EF
:100A5000CF92DF92EF92FF920F931F93CF93DF938A
:100A60006C017A018B01C0E0D0E0CE15DF0581F08A
:100A7000D8016D918D01D601ED91FC910190F0812D
:100A8000E02DC6010995892B11F02196EECF7E014C
:100A9000C701DF91CF911F910F91FF90EF90DF90F1
:100AA000CF90089585ED8093BC008091BC0084FDBB
:100AB000FCCF10920E02089540919201262F30E053
:100AC000240F311D21323105DCF420910E02243037
:100AD000C9F4FC0180E090E0861758F4309192014F
:100AE0002191DC01AE58BE4FA30FB11D2C9301968E
:100AF000F3CF80919201680F6093920180E0089596
:100B000081E0089582E008950895E091BA0180910E
:100B1000B901E81730F4F0E0EE5AFE4F808190E022
:100B200008958FEF9FEF08959091BA018091B901D8
:100B3000981750F4E92FF0E0EE5AFE4F208130E094
:100B40009F5F9093BA0102C02FEF3FEFC901089554
:100B50008091B90190E02091BA01821B910908951A
:100B6000CF92DF92EF92FF920F931F93CF93DF9379
:100B70007C01CB018A0120913202222389F0EB0112
:100B80006B01C40ED51ECC15DD0569F06991D70146
:100B9000ED91FC910190F081E02DC7010995F3CF13
:100BA000642F0E945C05C801DF91CF911F910F91C6
:100BB000FF90EF90DF90CF900895CF93DF931F9237
:100BC000CDB7DEB76983209132022223D1F0209184
:100BD0002F02203240F021E030E0FC0133832283F9
:100BE00080E090E015C080913002E82FF0E0E15FF6
:100BF000FD4F998190838F5F8093300280932F0205
:100C000005C061E0CE0101960E945C0581E090E0A4
:100C10000F90DF91CF9108950F931F93CF93DF93A0
:100C20008C01D091B8008CE08093B800C091DC02B8
:100C300081E080933202C093310210923002109210
:100C40002F02662311F060E601C060E480ED92E0BF
:100C50000E94DD05B80184E0769567958A95E1F7F5
:100C600080ED92E00E94DD05B80194E0660F771FE9
:100C70009A95E1F780ED92E00E94DD0590912F02B8
:100C8000913208F045C080910E028111FCCF82E0C4
:100C900080930E0281E080930D028FEF80930C020F
:100CA00010920B0290930A02AFE0B2E0EAEEF1E09C
:100CB00080E0981721F02D9121938F5FFACF109249
:100CC000E9018091E901CC0FC82BC093E901809123
:100CD000E801813061F41092E8018091E90180938C
:100CE000BB008091BC0083FDF8CF85EC01C085EE90
:100CF0008093BC0080910E028230E1F380910C025F
:100D00008F3F31F080910C02803211F080910C0203
:100D10001092300210922F0210923202D093B8003B
:100D2000DF91CF911F910F910895089580E090E099
:100D300008956091BD017091BE0165307105C4F0E8
:100D4000072E000C880B990B0E94B50F2AE939E990
:100D500049E95FE30E940B0F0E947D0F7093C00171
:100D60006093BF0183E090E090931B0180931A0190
:100D70001092BE011092BD0181E08093C1010895DF
:100D80008F929F92AF92BF92CF92DF92EF92FF929B
:100D9000C0900601D0900701E0900801F090090191
:100DA0002AE939E949E95EE3C701B6010E949A0ED2
:100DB00020E030E040EC5FE30E94990E4B015C01C3
:100DC0006091120170911301072E000C880B990B92
:100DD0000E94B50F9B01AC01C501B4010E940B0F2D
:100DE0004B015C016091BD017091BE01072E000CAA
:100DF000880B990B0E94B50F9B01AC01C501B40192
:100E00000E946A1020E030E040EC5FE30E949A0EFE
:100E10004B015C0120E030E040EC5FE30E94060FF4
:100E2000882349F080920A0190920B01A0920C0154
:100E3000B0920D010CC08AE999E9A9E5BFE380935E
:100E40000A0190930B01A0930C01B0930D01209126
:100E50000A0130910B0140910C0150910D01C70125
:100E6000B6010E94060F87FF08C0C0920A01D09207
:100E70000B01E0920C01F0920D0120E030EC4CE40B
:100E800054E460910A0170910B0180910C019091E2
:100E90000D010E946A100E94840FDC01CB0160E00A
:100EA000FF90EF90DF90CF90BF90AF909F908F908A
:100EB0000C940C060E9438111F920F920FB60F92DD
:100EC00011242F933F938F939F93AF93BF93809160
:100ED000CF019091D001A091D101B091D201309178
:100EE000CE0123E0230F2D3720F40196A11DB11D63
:100EF00005C026E8230F0296A11DB11D2093CE0147
:100F00008093CF019093D001A093D101B093D201EF
:100F10008091D3019091D401A091D501B091D601D7
:100F20000196A11DB11D8093D3019093D401A0938C
:100F3000D501B093D601BF91AF919F918F913F9111
:100F40002F910F900FBE0F901F9018951F920F9228
:100F50000FB60F9211242F933F934F935F936F938C
:100F60007F938F939F93AF93BF93EF93FF93E09102
:100F70000201F09103010995FF91EF91BF91AF91AB
:100F80009F918F917F916F915F914F913F912F91A1
:100F90000F900FBE0F901F9018951F920F920FB6D3
:100FA0000F9211242F933F934F935F936F937F93EF
:100FB0008F939F93AF93BF93EF93FF93E0910001C3
:100FC000F09101010995FF91EF91BF91AF919F9130
:100FD0008F917F916F915F914F913F912F910F90E2
:100FE0000FBE0F901F9018951F920F920FB60F9281
:100FF00011242F933F934F935F936F937F938F931E
:101000009F93AF93BF93EF93FF938091DC019091F7
:10101000DD01A091DE01B091DF01892B8A2B8B2BA2
:1010200051F19091D701E091D801F091D9018081DF
:10103000892780838091DC019091DD01A091DE0100
:10104000B091DF01181619061A061B06C4F4809128
:10105000DC019091DD01A091DE01B091DF010197EB
:10106000A109B1098093DC019093DD01A093DE0119
:10107000B093DF0104C080911C010E94FD04FF9128
:10108000EF91BF91AF919F918F917F916F915F9100
:101090004F913F912F910F900FBE0F901F90189579
:1010A0001F920F920FB60F9211242F933F934F93DD
:1010B0005F936F937F938F939F93AF93BF93EF93C0
:1010C000FF9383E392E00E94CA00FF91EF91BF91EA
:1010D000AF919F918F917F916F915F914F913F91D0
:1010E0002F910F900FBE0F901F9018951F920F9287
:1010F0000FB60F9211242F938F939F93EF93FF932B
:10110000E0914302F09144028081E0914902F09124
:101110004A0282FD12C0908180914C028F5F8F73D2
:1011200020914D02821751F0E0914C02F0E0ED5C0D
:10113000FD4F958F80934C0201C08081FF91EF910C
:101140009F918F912F910F900FBE0F901F90189528
:101150001F920F920FB60F9211242F933F934F932C
:101160005F936F937F938F939F93AF93BF93EF930F
:10117000FF938091B900887F803609F49CC068F5A0
:10118000883209F45BC090F4803109F454C038F41B
:10119000882309F4F6C0883009F44DC0F6C08831C0
:1011A00009F44CC0803209F45DC0EFC0803409F40A
:1011B00068C048F4803309F455C0883309F0E5C0AD
:1011C00080930C02D8C0803509F44FC0883509F4EB
:1011D0005DC0883409F0D9C0D6C0883909F4C7C0C9
:1011E000A8F4883709F467C038F4883609F463C076
:1011F000803709F460C0C9C0883809F4B8C08039A4
:1012000009F45FC0803809F0C0C05BC0803B09F4BE
:1012100086C038F4803A09F466C0883A09F47FC081
:10122000B4C0803C09F4A7C0883C09F4A4C0883B42
:1012300009F48AC0AAC08091E90110C090910B0204
:1012400080910A02981770F5E0910B0281E08E0FF1
:1012500080930B02F0E0E651FE4F80818093BB004B
:1012600085EC86C080930C028EC0E0910B0281E079
:101270008E0F80930B028091BB00F0E0E651FE4F91
:10128000808390910B0280910A026EC0E0910B0264
:1012900081E08E0F80930B028091BB00F0E0E6515D
:1012A000FE4F808380910D0281116DC081E080939B
:1012B000E80184EA61C083E080930E021092B401D9
:1012C000CFCF8091B401803208F051C0E091B401D9
:1012D00081E08E0F8093B4018091BB00F0E0EC566A
:1012E000FE4F8083BDCF85EC8093BC0010920E0230
:1012F0008091B401803230F4E091B401F0E0EC561A
:10130000FE4F10826091B40170E0E091B501F09160
:10131000B60184E991E009951092B40136C084E0E9
:1013200080930E021092930110929201E091B70106
:10133000F091B801099580919201811105C081E079
:101340008093920110927201E091930181E08E0FDF
:1013500080939301F0E0EE58FE4F80818093BB00B4
:101360009091930180919201981708F479CF85E8C4
:101370008093BC000AC085EC8093BC0010920E02E2
:1013800004C010920C020E945205FF91EF91BF9190
:10139000AF919F918F917F916F915F914F913F910D
:1013A0002F910F900FBE0F901F901895E3E3F2E07E
:1013B0001382128288EE93E0A0E0B0E084839583EC
:1013C000A683B78321E331E03183208325EC30E02D
:1013D0003587248724EC30E03787268720EC30E0FF
:1013E000318B208B21EC30E0338B228B22EC30E0F0
:1013F000358B248B26EC30E0378B268B118E128EAA
:10140000138E148EE0EDF2E01382128284839583B2
:10141000A683B78383E491E09183808308957894D1
:1014200084B5826084BD84B5816084BD85B58260E9
:1014300085BD85B5816085BD80916E00816080939A
:101440006E00109281008091810082608093810003
:101450008091810081608093810080918000816013
:10146000809380008091B10084608093B10080916E
:10147000B00081608093B00080917A008460809396
:101480007A0080917A00826080937A0080917A005D
:10149000816080937A0080917A00806880937A00DE
:1014A0001092C10061E08BE00E94C70161E083E01F
:1014B0000E94C70161E083E00E94980162E082E03F
:1014C0000E94C70184ED94E0909301018093000194
:1014D000809169008C7F816080936900E89A8EED2D
:1014E00094E0909303018093020180916900837FCF
:1014F000886080936900E99A80E68093DC0210920C
:10150000BA011092B9011092300210922F0210927B
:101510000E0281E080930D021092E80161E082E109
:101520000E94980161E083E10E9498018091B900D6
:101530008E7F8093B9008091B9008D7F8093B90030
:1015400088E48093B80085E48093BC008AEF94E03F
:101550009093B8018093B7018BEF94E09093B6011C
:101560008093B50161E08AE293E00E940C06EFE708
:10157000F0E08491E3E9F0E0D491E1EBF0E0C49194
:10158000CC2309F43BC081110E946F01EC2FF0E0E5
:10159000EE0FFF1FE859FF4FA591B491EC91ED2399
:1015A00069F142E350E060E070E080ED97E00E9476
:1015B00003026CE370E080E090E00E949A048BE00C
:1015C0000E94FD041092CB011092CA011092CD012D
:1015D0001092CC0168EB7BE080E090E00E949A04DE
:1015E0008091CA019091CB01069764F08091CA0165
:1015F0009091CB010F970CF46BC304C081E08093F2
:10160000BB01CFCF8091CA019091CB010F970CF411
:101610004DC044E650E060E070E08CE697E00E9448
:10162000030266E970E080E090E00E949A0444E6DC
:1016300050E060E070E08CE697E00E94030266E90B
:1016400070E080E090E00E949A0444E650E060E0A0
:1016500070E08CE697E00E94030266E970E080E0AB
:1016600090E00E949A0486E090E0909313018093AA
:10167000120180E090E0A0ECBFE38093160190930C
:101680001701A0931801B093190181E08093110113
:101690001092100122E030E030930F0120930E01F0
:1016A0008093BB011092CB011092CA0180910E0170
:1016B00090910F010197B1F4E0910401F0910501BF
:1016C000EE0FFF1FEE0FFF1FE35EFE4F8081918143
:1016D000A281B3818093060190930701A093080132
:1016E000B093090120E030E040E850E46091160139
:1016F0007091170180911801909119010E946A1050
:10170000609316017093170180931801909319014B
:101710008091120190911301880F991F880F991FD2
:1017200090931301809312018091140190911501FF
:10173000880F991F880F991F9093150180931401AA
:101740009093C5018093C40142E0C42ED12C53E094
:10175000E52EF12C332433946AE9862E69E9962E1E
:1017600069E7A62E60E4B62E1092CD011092CC014E
:101770001092CB011092CA016AEF70E080E090E015
:101780000E949A04C091CC01D091CD01D093C9019F
:10179000C093C8018091CA019091CB019093C70179
:1017A0008093C60180911A0190911B01C817D90737
:1017B00064F58091C4019091C50101969093C50193
:1017C0008093C4016091C2017091C3016F5F7F4F2C
:1017D0007093C3016093C20180E090E00E94B30F58
:1017E0002091160130911701409118015091190173
:1017F0000E94651087FD41C00E94990680911A01E0
:1018000090911B01C817D907C4F12091C4013091F0
:10181000C50180911401909115012817390798F49A
:101820008091C101882379F08091BF019091C0011E
:101830009093BE018093BD011092C101D0921B0113
:10184000C0921A0102C01092C1011092C5011092FB
:10185000C4011092C3011092C2018091BD01909108
:10186000BE012091120130911301821793072CF4CD
:1018700001969093BE018093BD01C091C801D091A3
:10188000C901209709F06AC08091BD019091BE0105
:101890001816190694F420911101222371F0029771
:1018A0008F3F2FEF920729F09093BE018093BD01E7
:1018B00004C01092BE011092BD018091C6019091AA
:1018C000C701181619060CF0FEC18091100188237B
:1018D00009F44CC08091BC01882309F447C064E638
:1018E00070E080E090E00E949A041092CB01109288
:1018F000CA016EE571E080E090E00E949A04809158
:10190000CA019091CB011816190624F580920601A0
:1019100090920701A0920801B09209011092BC01B7
:1019200046E950E060E070E08CE697E00E94030238
:1019300068EC70E080E090E00E949A0446E950E094
:1019400060E070E08CE697E00E9403021092CB0109
:101950001092CA011092C7011092C6018091C6016F
:101960009091C701181619060CF0ADC100910E0137
:1019700010910F01209010010115110509F03FC0D1
:10198000C430D105E4F140900A0150900B01609001
:101990000C0170900D0126E636E646E050E4C301E6
:1019A000B2010E946510181654F526E636E646E6A2
:1019B00050E4C301B2010E94060F87FF20C022201D
:1019C00009F4B0C08091BC01811119C04092060198
:1019D0005092070160920801709209013092BC0197
:1019E00048EC50E060E070E084E398E00E9403027D
:1019F0006CE271E080E090E00E949A0464C12220D1
:101A000009F490C00130110509F08CC024970CF442
:101A100089C08091BD019091BE01892B09F482C0DB
:101A20004CE350E060E070E080ED97E00E9403023C
:101A3000C0910401D0910501CE010196909305015A
:101A40008093040164E670E080E090E00E949A04D4
:101A50001092CB011092CA016EE571E080E090E037
:101A60000E949A048091CA019091CB011816190620
:101A70006CF44CE350E060E070E088E097E00E9496
:101A800003022197D0930501C093040180910401C2
:101A900090910501039764F04CE251E060E070E042
:101AA00084E398E00E940302F0920501E0920401B1
:101AB00080910401909105011816190694F06AE5C9
:101AC00070E080E090E00E949A044CE251E060E017
:101AD00070E084E398E00E940302109205011092E6
:101AE0000401E0910401F0910501EE0FFF1FEE0FDC
:101AF000FF1FE35EFE4F80819181A281B3818093BD
:101B0000060190930701A0930801B093090168ECC6
:101B100070E080E090E00E949A041092CB01109255
:101B2000CA01D1C02AE939E949E55FE360910A01B8
:101B300070910B0180910C0190910D010E94060F94
:101B40008111BFC08091BD019091BE01892B09F028
:101B5000B8C06091C2017091C30180E090E00E9422
:101B6000B30F209116013091170140911801509147
:101B700019010E94651087FDA4C08091BB018823D4
:101B800009F49FC01092CB011092CA016EE571E07A
:101B900080E090E00E949A048091CA019091CB016C
:101BA000181619060CF08FC042E350E060E070E0B8
:101BB0008CEF98E00E9403021092CB011092CA01B0
:101BC0006EE571E080E090E00E949A048091CA0185
:101BD0009091CB01181619060CF075C042E350E045
:101BE00060E070E084EC99E00E9403021092CB0167
:101BF0001092CA016EE571E080E090E00E949A04C4
:101C00008091CA019091CB01181619060CF05BC0A7
:101C100042E350E060E070E08CE89AE00E9403024A
:101C20001092CB011092CA016BE470E080E090E06A
:101C30000E949A0420E030E040E450E46091060104
:101C40007091070180910801909109010E94060F8F
:101C500087FF03C008E010E002C006E010E0109229
:101C6000CB011092CA01C0E0D0E08091CA019091EE
:101C7000CB01181619067CF41092BE011092BD011A
:101C80000E94C0064CE251E060E070E080EF9AE014
:101C90000E94030218C08091BD019091BE0101967F
:101CA0009093BE018093BD010E94C0066AEF70E070
:101CB00080E090E00E949A0421960C171D07A9F677
:101CC00002C00E9499060E94C0060E9465014CCD88
:101CD00044E650E060E070E08CE697E00E9403028A
:101CE00066E970E080E090E00E949A0444E650E0EB
:101CF00060E070E08CE697E00E94030266E970E025
:101D000080E090E00E949A0480910E0190910F0172
:101D1000009739F481E090E090930F0180930E01D9
:101D200006C0019721F410920F0110920E0181E07C
:101D3000B7CC5058BB27AA270E94B10E0C942B1089
:101D40000E941D1038F00E94241020F039F49F3FAB
:101D500019F426F40C941A100EF4E095E7FB0C9499
:101D60001410E92F0E943C1058F3BA17620773074A
:101D70008407950720F079F4A6F50C945E100EF414
:101D8000E0950B2EBA2FA02D0B01B90190010C018B
:101D9000CA01A0011124FF27591B99F0593F50F4A3
:101DA000503E68F11A16F040A22F232F342F4427FB
:101DB000585FF3CF469537952795A795F0405395F3
:101DC000C9F77EF41F16BA0B620B730B840BBAF0C3
:101DD0009150A1F0FF0FBB1F661F771F881FC2F72E
:101DE0000EC0BA0F621F731F841F48F48795779542
:101DF0006795B795F7959E3F08F0B0CF9395880FFC
:101E000008F09927EE0F9795879508950E94F00F97
:101E100008F481E008950E941F0F0C942B100E947B
:101E2000241058F00E941D1040F029F45F3F29F063
:101E30000C94141051110C945F100C941A100E9401
:101E40003C1068F39923B1F3552391F3951B550B7F
:101E5000BB27AA2762177307840738F09F5F5F4F7D
:101E6000220F331F441FAA1FA9F335D00E2E3AF0BC
:101E7000E0E832D091505040E695001CCAF72BD0D4
:101E8000FE2F29D0660F771F881FBB1F2617370725
:101E90004807AB07B0E809F0BB0B802DBF01FF2757
:101EA00093585F4F3AF09E3F510578F00C94141010
:101EB0000C945F105F3FE4F3983ED4F386957795DA
:101EC0006795B795F7959F5FC9F7880F911D969510
:101ED000879597F90895E1E0660F771F881FBB1F6C
:101EE000621773078407BA0720F0621B730B840B19
:101EF000BA0BEE1F88F7E09508950E94840F68944E
:101F0000B1110C945F1008950E94441088F09F57FF
:101F100098F0B92F9927B751B0F0E1F0660F771F0D
:101F2000881F991F1AF0BA95C9F714C0B13091F003
:101F30000E945E10B1E008950C945E10672F782F18
:101F40008827B85F39F0B93FCCF3869577956795C8
:101F5000B395D9F73EF490958095709561957F4F34
:101F60008F4F9F4F0895E89409C097FB3EF49095DA
:101F70008095709561957F4F8F4F9F4F9923A9F062
:101F8000F92F96E9BB279395F695879577956795F1
:101F9000B795F111F8CFFAF4BB0F11F460FF1BC035
:101FA0006F5F7F4F8F4F9F4F16C0882311F096E9C8
:101FB00011C0772321F09EE8872F762F05C0662376
:101FC00071F096E8862F70E060E02AF09A95660F2F
:101FD000771F881FDAF7880F9695879597F90895E8
:101FE000990F0008550FAA0BE0E8FEEF161617062A
:101FF000E807F907C0F012161306E407F50798F092
:10200000621B730B840B950B39F40A2661F0232BAA
:10201000242B252B21F408950A2609F4A140A69526
:102020008FEF811D811D089597F99F6780E870E00B
:1020300060E008959FEF80EC089500240A9416163E
:10204000170618060906089500240A9412161306A6
:10205000140605060895092E0394000C11F4882334
:1020600052F0BB0F40F4BF2B11F460FF04C06F5F50
:102070007F4F8F4F9F4F089557FD9058440F551F26
:1020800059F05F3F71F04795880F97FB991F61F0FA
:102090009F3F79F087950895121613061406551F71
:1020A000F2CF4695F1DF08C0161617061806991FDD
:1020B000F1CF86957105610508940895E894BB27D2
:1020C00066277727CB0197F908950E94F00F08F44F
:1020D0008FEF08950E947D100C942B100E941D100C
:1020E00038F00E94241020F0952311F00C94141065
:1020F0000C941A1011240C945F100E943C1070F381
:10210000959FC1F3950F50E0551F629FF001729F9C
:10211000BB27F00DB11D639FAA27F00DB11DAA1FAB
:10212000649F6627B00DA11D661F829F2227B00DF8
:10213000A11D621F739FB00DA11D621F839FA00D83
:10214000611D221F749F3327A00D611D231F849FD3
:10215000600D211D822F762F6A2F11249F5750402A
:102160009AF0F1F088234AF0EE0FFF1FBB1F661FA5
:10217000771F881F91505040A9F79E3F510580F06E
:102180000C9414100C945F105F3FE4F3983ED4F36A
:10219000869577956795B795F795E7959F5FC1F712
:1021A000FE2B880F911D9695879597F90895A1E2CA
:1021B0001A2EAA1BBB1BFD010DC0AA1FBB1FEE1FC1
:1021C000FF1FA217B307E407F50720F0A21BB30B0C
:1021D000E40BF50B661F771F881F991F1A9469F788
:1021E00060957095809590959B01AC01BD01CF01E4
:1021F0000895052E97FB1EF400940E94101157FDC0
:1022000007D00E94D71007FC03D04EF40C94101195
:1022100050954095309521953F4F4F4F5F4F089512
:1022200090958095709561957F4F8F4F9F4F089542
:102230000E942911A59F900DB49F900DA49F800D21
:10224000911D11240895EE0FFF1F0590F491E02DCC
:102250000994A29FB001B39FC001A39F700D811D7F
:102260001124911DB29F700D811D1124911D08959F
:0E22700081E090E0F8940C943D11F894FFCFBB
:10227E00FC04FC0403009A9979409A99593F010095
:10228E00010105000A000000003F0200FF9A9919A3
:10229E004033333340CDCC4C409A99794000000006
:1022AE0000EC0028058D003901BE009C00B0000036
:1022BE00000000DD05B00596068405A80594058589
:0222CE00050009
:00000001FF
